:020000040800F2
:10000000E82C002091010008990100089B010008DC
:100010009D0100089F010008A101000800000000E8
:1000200000000000000000000000000011050008B2
:10003000A501000800000000C1040008FD0500083B
:10004000AB010008AB010008AB010008AB010008E0
:10005000AB010008AB010008AB010008AB010008D0
:10006000AB010008AB010008AB010008AB010008C0
:10007000AB010008AB010008AB010008AB010008B0
:10008000AB010008AB010008AB010008AB010008A0
:10009000AB010008AB010008AB010008AB01000890
:1000A000AB010008AB010008AB010008AB01000880
:1000B000AB010008AB010008AB010008AB01000870
:1000C000AB010008AB010008AB010008AB01000860
:1000D000AB010008AB010008AB010008AB01000850
:1000E000AB010008AB010008AB01000800F002F80A
:1000F00000F03AF80AA090E8000C82448344AAF188
:100100000107DA4501D100F02FF8AFF2090EBAE885
:100110000F0013F0010F18BFFB1A43F0010318473B
:100120004C2400006C240000103A24BF78C878C129
:10013000FAD8520724BF30C830C144BF04680C60ED
:10014000704700000023002400250026103A28BF35
:1001500078C1FBD8520728BF30C148BF0B60704739
:100160001FB51FBD10B510BD00F0ACF8114603B4AB
:1001700000F0E6FA03BCFFF7F3FF00F04BFC00F0E1
:10018000C6F803B4FFF7EEFF03BC00F0CDF80000A3
:100190000948804709480047FEE7FEE7FEE7FEE71B
:1001A000FEE7FEE7FEE7FEE7FEE7FEE70448054957
:1001B000054A064B7047000019060008ED000008CC
:1001C000E8260020E82C0020E8280020E82800206D
:1001D000032A40F2308010F0030C00F0158011F873
:1001E000013BBCF1020F624498BF11F801CB00F84B
:1001F000013B38BF11F8013BA2F1040298BF00F89F
:1002000001CB38BF00F8013B11F0030300F0288058
:10021000083AC0F0088051F8043B083A51F804CB82
:10022000A0E80810F5E7121D5CBF51F8043B40F848
:10023000043BAFF30080D20724BF11F8013B11F853
:1002400001CB48BF11F8012B24BF00F8013B00F897
:1002500001CB48BF00F8012B7047704770477047CB
:1002600010B5203AC0F00B80B1E81850A0E8185043
:10027000B1E81850A0E81850203ABFF4F5AF5FEA93
:10028000027C24BFB1E81850A0E8185044BF18C938
:1002900018C0BDE810405FEA827C24BF51F8043BDF
:1002A00040F8043B08BF7047D20728BF31F8023B33
:1002B00048BF11F8012B28BF20F8023B48BF00F8C7
:1002C000012B7047754600F02BF8AE4605006946D5
:1002D000534620F00700854618B020B5FFF766FFAB
:1002E000BDE820404FF000064FF000074FF0000837
:1002F0004FF0000BAC46ACE8C009ACE8C009ACE874
:10030000C009ACE8C00921F007018D46704710B55F
:100310000446AFF300802046BDE81040FFF731BF30
:10032000004870470800002001491820ABBEFEE7D6
:10033000260002007047000041F20400C4F20200EF
:1003400050F8041C41F4803140F8041C50F8041C9F
:100350008903FBD550F8041C41F0807140F8041C5F
:1003600050F8041C8901FBD5016841F080610160EF
:10037000016841F4E0110160016821F4003101607D
:10038000016841F480310160016841F4404101603D
:10039000016821F400610160016821F01001016031
:1003A000016841F002010160416941F4007141615D
:1003B00070470000816841F001018160816841F06F
:1003C00002018160816841F0040181608168490710
:1003D000FCD4816821F400618160816841F460216E
:1003E0008160016921F001010161C16A21F480117C
:1003F000C162416B21F001014163704701688907C7
:10040000FCD5C06C7047000081B0816841F00101EB
:100410008160002100910099B1F57A7F02DA00999C
:100420000131F7E7816841F4800181600168C90604
:10043000FCD501B070470000A0F18040A0F58430E9
:100440004FEAB020042888BF704705A151F820006A
:1004500041F21801C4F202010A68104308607047B3
:100460000400000008000000100000002000000050
:1004700040000000F0B581B01C4615460E46074608
:10048000FFF7DAFF6FF01F0000EB8600082E38BF81
:10049000B0004FF00F0128BF04373A68814022EACC
:1004A0000101396005FA00F1023004FA00F03A68FF
:1004B00008431043386001B0F0BD000000000000A8
:1004C000EFF30980BFF36F8F0D4B1A6820E9F00F2F
:1004D00010602DE908404FF0800080F3118800F093
:1004E0005BFF4FF0000080F31188BDE808401968F9
:1004F0000868B0E8F00F80F30988BFF36F8F70478A
:100500000C020020000000000000000000000000BD
:10051000074B19680868B0E8F00F80F30988BFF34B
:100520006F8F4FF0000080F311884EF00D0E704772
:100530000C02002080B500F001F880BD82B041F2CD
:1005400004000021C4F202000191009150F8041C43
:1005500041F4803140F8041C50F8041C01F40031CF
:100560000091019901310191009919B90199B1F5F1
:10057000A06FF1D150F8041C890354BF0021012160
:1005800000910099012936D142F20001C4F2020122
:100590000A6842F010020A600A6822F007020A6044
:1005A0000A6842F002020A600168016001680160A5
:1005B000016841F480610160016821F47C110160EF
:1005C000016841F4E811016050F8041C41F08071A9
:1005D00040F8041C50F8041C8901FBD5016821F087
:1005E00003010160016841F002010160016801F04E
:1005F0000C010829FAD102B07047000080B54EF214
:100600001000CEF20000006801F062F9012818BF66
:1006100000F018FF80BD000080B541F20000C4F278
:1006200002000168002241F0010101604168CFF63B
:10063000FF021140416001684FF6FF72CFF6F6628B
:1006400011400160016821F480210160416821F4BA
:10065000FE0141604FF41F018160FFF76BFF4EF612
:100660000850CEF200004FF00061016080BD000034
:1006700010B5044600F06EFB48B100F0C5F9002843
:1006800008BF10BD20684FF0FF3101F031F810BDF8
:1006900010B50446006800F009FE216840F2F81227
:1006A0000020C2F2000200BF52F82030994204D06C
:1006B0000130052808BF10BDF6E7002142F82010E0
:1006C00010BD000070B540F2680140F2F816044613
:1006D0000025C2F20001C2F20006056056F82500AE
:1006E00028B10135052D01F15001F7D105E00120B8
:1006F00000F0CCFE46F825002060206830B900F0FC
:1007000029FB18B1012000F0B5FE2060002080F325
:1007100011882068002818BF012070BD10B504465C
:1007200000F018FB50B100F06FF9002808BF10BDB1
:10073000206800210022002300F03EFF10BD0000D1
:10074000704700002DE9F04F81B09B4691468A46E4
:10075000074601F0EDFB064601F019FC80460C4609
:100760003046494600F00CF9002500BF19F8050095
:1007700001350028FAD1BBF1010F29DB384651467B
:100780004246234601F018FD40F2000809EB05023D
:100790002E230024C4F2240802F8013C0022434620
:1007A00001F00CFC07460E4601F0C2FB00F13001DF
:1007B00009EB0402515501F0EAFB02460B463846AC
:1007C000314601F0F9FC0134A345E7D1281900E0D6
:1007D000681E002109F8001001B0BDE8F08F00008C
:1007E00081B01143016147F66011CFF6FE7100BF81
:1007F0004269920703D40131FAD301B070474269CC
:100800004169D20507D44269890507D400928069FD
:10081000009001B0704721F4807101E022F4007172
:10082000416101B07047000081B000BF426912060B
:10083000FCD5016141690906FCD542694169D205CF
:100840000AD4426989050AD4910703D54169009108
:100850008069009001B0704721F4807101E022F4BA
:100860000071416101B0704770B50C4641F21C0146
:10087000C4F2020151F8042C45F2004642F0010294
:1008800041F8042C45F60002C4F200029042C4F282
:10089000000628D0B04218BF70BD086840F6004579
:1008A00040F40010C4F20105086028460621032226
:1008B0000323FFF7DFFD2846072103220323FFF769
:1008C000D9FD306840F400403060306820F40040CA
:1008D0003060082070600920F4613062306840F0B8
:1008E0000100306070BD086840F6004540F48000AB
:1008F000C4F20105086028460A2103220323FFF7FA
:10090000B9FD28460B2103220323FFF7B3FDD6F8D8
:100910000004082140F40040C6F80004D6F80004A2
:1009200020F40040C6F8000445F60400C4F20000BC
:10093000016009218461C161D6F8000440F0010022
:10094000C6F8000470BD0000016841F480710160C8
:1009500047F66011CFF6FE714269D20718BF7047A3
:100960000131F9D37047000081B04169009181697C
:100970000091016841F40071016001B0704700000E
:10098000B0B5002831D0054648BF4542012D2FDBC8
:1009900046F2676C0022C6F2666C00BF85FB0C3421
:1009A000A31003EBD47303EB8304A5EB44043034AE
:1009B00002F1010E8C54092D1D467246EEDCB0F199
:1009C000FF3F1ADD0020BEF1020F01F80E00B8BF94
:1009D000B0BDAEF1010000220B5C8D5C8B540D5458
:1009E000013201388242F7DBB0BD30200880B0BD53
:1009F0004FF0000EB0F1FF3FE4DC2D2001F80E00B7
:100A00000EF1010EDEE70000EFF30580002818BFAD
:100A10000120704782B045F20044C4F20004204631
:100A200000F00AF9732723A3204604213C220097F3
:100A300000F05EF9204600F041F804F53440002152
:100A400000220023FFF716FDFFF776FC04F5504A5D
:100A50005046FFF7AFFC5046FFF7D6FC42F28866DF
:100A600040F28109C2F20006B427C8F208096925DC
:100A70000DF104085046FFF7C1FC00FB07F181FBB4
:100A8000091200FB07213060C81200EBD170019001
:100A9000204603213C223346009500F029F92046E8
:100AA00004213C224346009500F022F9204600F044
:100AB00005F8DFE748656C6C6F00000070B5002139
:100AC00000220446002500F0FDF800BF802600BF8C
:100AD0002046002100F03CF8013EF9D10135082DF7
:100AE000F4D120460021002200F0ECF870BD000097
:100AF000B0B50C460546FFF727FF284678210022AF
:100B0000FFF76EFE28460021FFF78EFE284621469D
:100B1000FFF78AFE2846FFF727FFB0BDB0B50C46A9
:100B20000546FFF711FF284678210022FFF758FEFF
:100B300028460021FFF778FE21782846FFF774FE4B
:100B400061782846FFF770FE2846FFF70DFFB0BD1D
:100B5000B0B50C460546FFF7F7FE2846782100227F
:100B6000FFF73EFE28464021FFF75EFE284621465D
:100B7000FFF75AFE2846FFF7F7FEB0BDB0B584B0C8
:100B80000D462D210446FFF76FFE43F6A870ADF821
:100B90000E000DF10E012046FFF7C0FFD320ADF887
:100BA0000C0003A92046FFF7B9FF20464021FFF7BC
:100BB0009FFF2046A121FFF79BFF2046C821FFF79A
:100BC00097FFDA208DF80A000DF10A0120468DF812
:100BD0000B50FFF7A3FF47F68170ADF8080002A99C
:100BE0002046FFF79BFF2046A421FFF781FF204608
:100BF000A621FFF77DFF48F2D500ADF806000DF104
:100C000006012046FFF78AFF41F28D40ADF804004F
:100C100001A92046FFF782FF2046AF21FFF768FFBA
:100C20004FF48150ADF802000DF102012046FFF7AC
:100C300075FF04B0B0BD000010B582B01221FFF7FF
:100C40009DFF45F20044C4F200042046FFF736FF42
:100C50004FF0730C04A3204603211E22CDF800C0E0
:100C600000F046F802B010BD496E697420646F6EE2
:100C7000652000002DE9F04381B088460978F1B184
:100C800042F28C3705464FF00009C0F60007444693
:100C9000002600BF207800EB80003844304410F874
:100CA000A01C2846FFF754FF0136052EF2D109F1AA
:100CB000010918F8090008EB09040028E8D101B07F
:100CC000BDE8F08370B50D4602F00F0114460646EC
:100CD000FFF70EFF200900F110013046FFF708FF73
:100CE000A5F15000C1B23046FFF702FF70BD000011
:100CF00070B59AB014461E9A0E46642A054613D063
:100D0000692A18D0732A1AD1187801A948B1013973
:100D10005A1E00BF01F8010F907801320028F9D166
:100D20000131002008700AE0D3E9000101AA022382
:100D3000FFF708FD03E0186801A9FFF721FE284628
:100D400031462246FFF7BEFF01A92846FFF792FF72
:100D50001AB070BD80B500F0BBFD0238B0FA80F06B
:100D6000400980BD2DE9F04381B00E4642F2DC61BE
:100D7000C2F200010D6840F21021C2F20001D1F868
:100D8000008040F2182140F20C24C2F20001C2F2AD
:100D90000004D1F800902168002281F85A202168CF
:100DA0000746081D00F0F8F9781C19D1C6B142F2C7
:100DB000C860C2F20000D0E90012236801319A60D5
:100DC00093682768FB602368976804337B60236817
:100DD0000433936022680160506101B0BDE8F08384
:100DE0002068ED194560206800F1040105D34846EC
:100DF00000F0F4F901B0BDE8F083404600F0EEF9F0
:100E000042F29460C2F2000001688D4238BF056072
:100E100001B0BDE8F083000070B5866B036C04463A
:100E2000E3B115461AB3E0681A46FFF7D1F9E16855
:100E3000206C2268091A9142E16003D2A168404205
:100E40000844E060A81EB0FA80F040093146002E48
:100E500018BF01210840361A002516E02068002539
:100E600098B9A06800F012FEA56005460DE0606824
:100E70001A46FFF7ADF9216CD4E9010200250844B8
:100E80006060904224BF20686060711C2846A163A6
:100E900070BD0000416A00290FBF0020006B006890
:100EA000C0F138007047000040F27C60C2F20000E0
:100EB000C21D22F0070210F0070CA0EB020318BFBE
:100EC000104642F2C062C2F200020021C2E90001F3
:100ED0004FF40052BCF1000F18BF03F5005202445A
:100EE000083A40F2142322F00702C2F200031A600B
:100EF000C2E90011111A1A68C0E9002142F290609B
:100F0000C2F20000016042F28C60C2F20000016097
:100F100070470000002808BF704780B500210160BD
:100F2000C0E9021100210022002300F045FBBDE8CA
:100F300080407047B0B5049D002914BF2A602D6021
:100F4000C5E90F01284601211C4600F0F5FA85F895
:100F50004C40B0BD80B542F2C062C2F2000200BF98
:100F6000114612688242FBD3D1F804C001EB0C0396
:100F7000834203D14068604448600846D0F804E0EA
:100F800000EB0E03934201D0026010E040F2142304
:100F9000C2F20003D3F800C0624506D00B68526865
:100FA0001B687244C0E9003201E0C0F800C0814211
:100FB00018BF086080BD000010B5044600F02CF991
:100FC000A06BB0FA80F0440900F036F9204610BD5D
:100FD00010B5044600F020F9A06BE16B401AB0FA9E
:100FE00080F0440900F028F9204610BD40F210209E
:100FF000C2F200000168096819B10068C0680068A1
:1010000001E04FF0FF3042F29461C2F2000108604B
:1010100070470000F0B581B0044600F0FDF894F987
:101020004560012E0FDB04F1240500BF286850B194
:10103000284600F0B7FD002818BF00F04DF970B247
:10104000013E0128F2DCFF2684F8456000F0F4F848
:1010500000F0E2F894F94470012F0EDB04F1100562
:10106000286850B1284600F09DFD002818BF00F008
:1010700033F978B2013F0128F2DC84F8446000F0D3
:10108000DBF801B0F0BD0000F0B581B0044698B1C6
:1010900014F1090F0DD804F1080010F007010AD06F
:1010A000A1F1090290429ABF601A00F110040024D5
:1010B00002E0002400E0044600F066F940F2142744
:1010C000C2F200073868002808BFFFF7EDFE012CC8
:1010D0004FF000054EDB42F28C6CC2F2000CDCF8E3
:1010E0000020944246D842F2C065C2F2000528684A
:1010F000034653F8041FA14211D205685DB100BF39
:1011000005460068034653F8041FA14207D206684B
:10111000002EF5D103E042F2C065C2F200053F683F
:10112000B84226D0D5F800E00668091B11292E60C8
:1011300004D3071979601C6006512F6042F2906653
:101140001968C2F200063768521ABA42CCF8002079
:1011500038BF326042F29C6241F00041C2F20002AC
:101160001960136800210EF108050160581C106019
:1011700000E0002500F086FD284601B0F0BD00002B
:1011800040F20C20C2F200000068002808BF70473F
:10119000016D013101657047D0E901230169936058
:1011A0004B68D0F808C08342CCF8042001D1826893
:1011B0004A600B6800220261581E086070470000F8
:1011C000704700004FF0FF31024642F8081F00212F
:1011D000C0E90322C0E900127047000080B5D1F8D1
:1011E00000C01CF1010207D000F108039E465B68B5
:1011F0001A686245FAD901E0D0F810E0DEF8042060
:1012000008614A6091600268C1F808E0CEF80410F5
:10121000511C016080BD00004FF0800080F31188F8
:10122000BFF36F8FBFF34F8F40F20000C2F2000098
:10123000016801310160704740F20000C2F2000015
:1012400001680139016018BF7047002080F31188E0
:1012500070470000B0B528B1044650F8040CB0F156
:10126000FF3F00DDB0BDA4F108052968002918BFC3
:10127000B0BD20F0004044F8040C00F085F842F2C4
:101280008C61C2F2000154F8040C0A681044086032
:101290002846FFF75FFE42F2A060C2F2000001683C
:1012A0000131016000F0EEFCB0BD000080B590F8A7
:1012B0004610002908BFFFF7CDFF80BD42F29861BC
:1012C000C2F200010968016042F2DC61C2F2000171
:1012D000096841607047000042F2E060C2F200001D
:1012E000012101607047000010B50C4640F20C214E
:1012F000C2F2000109681831FFF770FF2046012192
:10130000FFF730FD10BD000070B5E8B1C26C0446B7
:10131000C06A8A4238BF0A46904208BF70BD216D3C
:10132000012911D1A169E26200295CBFC2F1380133
:10133000A16140F21C26616900EB8000C2F2000648
:1013400006EB8000814200D070BD251D2846FFF7C6
:1013500023FF42F28461C2F20001E06A0A6890420F
:1013600088BF086000EB800006EB80014A6861617D
:101370009368A260E3609368956056F820205D60F2
:10138000511C46F8201070BD42F28060C2F200008D
:10139000016801310160704710B542F28060C2F20D
:1013A0000000006830B142F2E060C2F200000121AA
:1013B000016010BD42F2E060C2F20000002140F284
:1013C0000C240160C2F200042068006B0168B1F1D6
:1013D000A53F0BD14168B1F1A53F07D18168B1F1BB
:1013E000A53F03D1C068B0F1A53F04D021682068B3
:1013F0003431FFF7E5FE42F28460C2F2000001687A
:1014000040F21C23013101EB8102C2F2000303EB25
:101410008202083252F81C3C143A002BA1F101015F
:10142000F8D052F8043C5B68934242F8043C02D185
:10143000536842F8043C52F8042CD26822600160E0
:10144000206810BD80B54FF0800080F31188BFF395
:101450006F8FBFF34F8F00F04FFA30B14EF604504C
:10146000CEF200004FF080510160002080F311881F
:1014700080BD000010B502460120002100F018F8E0
:101480000446FFF747FD204610BD000010B582B0AE
:101490000B468446012000210022CDF800C000F058
:1014A0002DF80446FFF736FD204602B010BD0000BF
:1014B000F0B581B0F8B105460E46A0FB0101D1B9E7
:1014C00006FB05F010F1510F15D850301446FFF708
:1014D000DBFD074600284FF000000AD007F150025C
:1014E00087F846002846314623460097FFF722FD3D
:1014F000384601B0F0BD002001B0F0BDB0B582B0FB
:101500001D4600284FF0000318BF002D02D11846D9
:1015100002B0B0BD11B90AB10023F8E711B10AB9A0
:101520000023F4E7069B012485F846400095FFF769
:1015300001FD2B46EBE7000070B528B30446C06BF5
:1015400010B30D46216C0026A0FB010191BBFFF7F3
:1015500063FE2068D4E90F12A66302FB0103013980
:1015600001FB0201C4E90103FF20E16084F84400AB
:1015700084F8450004F110004DB1FFF723FE04F19B
:101580002400FFF71FFE12E00026304670BD016800
:1015900069B100F007FB50B14EF60450CEF20000E6
:1015A0004FF080510160BFF34F8FBFF36F8FFFF794
:1015B00043FE0126304670BD2DE9F04F83B01D4635
:1015C000884604460292FFF727FEA06B022D58D0F2
:1015D000E16B884255D304F110074FF0000B6E46C3
:1015E0000DF108094FF0000A0298002873D0BAF1F3
:1015F000000F04D13046FFF761FE4FF0010AFFF7FC
:101600001BFEFFF7C1FEFFF707FE94F84400FF281A
:1016100008BF84F844B094F84500FF2808BF84F858
:1016200045B0FFF709FE3046494600F013F900289F
:1016300054D12046FFF7CCFCB0B102993846FFF7F1
:1016400053FE2046FFF7E6FC00F01CFB88B94EF67F
:101650000450CEF200004FF080510160BFF34F8F75
:10166000BFF36F8F05E000BF2046FFF7D3FC00F00B
:1016700009FBFFF7D1FDA06B022D02D0E16B884280
:10168000B2D2204641462A46FFF7C6FB54F8241F33
:1016900079B1204600F086FAB8B14EF60450CEF289
:1016A00000004FF080510160BFF34F8FBFF36F8F89
:1016B0000BE050B14EF60450CEF200004FF08051D6
:1016C0000160BFF34F8FBFF36F8FFFF7B5FD0120B0
:1016D00003B0BDE8F08FFFF7AFFD04E02046FFF751
:1016E00099FC00F0CFFA002003B0BDE8F08F0000B5
:1016F0002DE9F04F85B0044600F11005243000902C
:101700004FF0000802AF0DF1100A4FF08059002091
:101710004FF0000B049101900AE000BF2046FFF754
:1017200079FC00F0AFFA2046FFF746FC00287AD19A
:10173000FFF772FDA06BE8B10138A063206810B913
:10174000FFF71EFDA060286868B1284600F02AFA5D
:1017500048B14EF60450CEF20000C0F80090BFF33E
:101760004F8FBFF36F8FFFF767FD01260020A8B9E9
:101770006BE000BF049850B1BBF1000F04D13846B4
:10178000FFF79CFD4FF0010B012038B95DE0FFF73A
:1017900053FD00200026002857D000BFFFF74CFD66
:1017A000FFF7F2FDFFF738FD94F84400FF2808BF6B
:1017B00084F8448094F84500FF2808BF84F84580E9
:1017C000FFF73AFD3846514600F044F80028A5D10D
:1017D0002046FFF7F1FB28B92046FFF71BFC00F07D
:1017E00051FAA5E7206838B9FFF716FDA06800F0A8
:1017F00085F90190FFF720FD04990098FFF774FD2B
:101800002046FFF707FC00F03DFA00287FF490AF78
:101810004EF60450CEF20000C0F80090BFF34F8F98
:10182000BFF36F8F84E7019870B1FFF7F5FC204696
:10183000FFF730FBA168024608461146FFF764FD3A
:10184000FFF7FAFC002600E00026304605B0BDE8B0
:10185000F08F0000B0B50C460546FFF7DDFC42F204
:10186000DC6040F20C22C2F20000C2F2000200680A
:101870006968136893F85A3043B11068002180F802
:101880005A100124FFF7D8FC2046B0BD2268531C33
:101890000ED042F29863C2F20003D3F800C088422F
:1018A00008D32B689C4505D0002020600124E9E77F
:1018B0000024E7E7401A824206D9101A2060284621
:1018C000FFF7FCFC0024DDE7002020600124D9E7BD
:1018D00042F2BC60C2F200000068002804BF012090
:1018E000704742F28060C2F200000068B0FA80F0F7
:1018F00040094000704700002DE9F04F81B042F2EE
:101900008060C2F20000006850B142F2A460C2F2EE
:101910000000016801310160002001B0BDE8F08FD6
:1019200042F2DC60C2F20000016811F10108C0F867
:10193000008014D340F2102040F21822C2F20000BE
:10194000C2F2000201681368036042F298601160FD
:10195000C2F20000016801310160FFF747FB42F26B
:101960009461C2F20001086840F20C2C40F21C2B7A
:101970008045C2F2000CC2F2000B01D2002070E0E0
:1019800040F2102AC2F2000ADAF800004FF0000913
:10199000006800285AD042F2846EC2F2000E002085
:1019A00028E000BF2968A4460139C6F828902960BC
:1019B000F56ADEF800108D4205EB850188BFCEF890
:1019C00000500BEB8102536872619C68B360F46055
:1019D0009C689F605BF8213067605A1C4BF821209F
:1019E000DCF80010C96ADAF800208D4288BF0120B7
:1019F000116879B3DAF80020D268D668374657F80C
:101A0000045FA84528D3D6E902537269AB605368D6
:101A1000F168BB424D6001D1F16851601168B56A4F
:101A20000139002DC6F814901160C1D0D6E9071213
:101A300064468A606A6806F11803D6F820C09A42A4
:101A4000CCF80410AED1316A6960ABE74FF0FF35D6
:101A5000002005E04FF0FF3542F29461C2F2000130
:101A60000D60DCF80010C96A01EB81015BF8211000
:101A7000012942F2E061C2F2000188BF0120096839
:101A8000002918BF012001B0BDE8F08FB0B598B3B0
:101A90000446C16A006DE26C013820654FF0000019
:101AA00018BFB0BD914226D0251D2846FFF774FB14
:101AB000E06C40F21C2CC0F13801A16142F284615B
:101AC000E062C2F200010A68C2F2000C904288BFD4
:101AD000086000EB80000CEB80025368626199683B
:101AE000A360E16099689D604D605CF82010013151
:101AF0004CF820100120B0BD0020B0BDF0B581B081
:101B000000B340F20C27C2F200070446C06A3968ED
:101B1000C96A884219D2A169002904D43968C96AFE
:101B2000C1F13801A16140F21C26616900EB80001F
:101B3000C2F2000606EB800081420FD03868C06A0E
:101B4000E0622BE0002001B0F0BDE16C3868C26AB1
:101B50000020914238BF012001B0F0BD251D28466C
:101B6000FFF71AFB386842F28461C06AC2F20001D2
:101B7000E0620A68904288BF086000EB800006EBD4
:101B800080014A6861619368A260E3609368956030
:101B900056F820205D60511C46F82010012001B04D
:101BA000F0BD000080B5C068C068D0E90731826A26
:101BB0009960516800F1180CD0F820E06145CEF82A
:101BC000043001D1016A5160136800218162591EFD
:101BD000116042F28061C2F20001096871B142F203
:101BE000A862C2F20002516882628B68C16103621E
:101BF0008B68C1F808C0C3F804C02EE0D0E90231F8
:101C000042699960516800F1040CD0F80CE061451C
:101C1000CEF8043001D1C1685160136800214161E0
:101C2000591E42F284631160C2F20003C26A19684D
:101C30008A4288BF1A6002EB820140F21C22C2F283
:101C4000000202EB8102516842618B688160C360CF
:101C50008B68C1F808C0C3F804C01168C06A0131BC
:101C6000116040F20C21C2F200010968C96A884281
:101C700091BF002042F2E061C2F20001012088BF62
:101C8000086080BD2DE9F04F81B0FFF7C5FA42F240
:101C90008060C2F20000016801390160006830B163
:101CA0000024FFF7C9FA204601B0BDE8F08F42F2E8
:101CB0007C60C2F200000068002800F08D8042F2D3
:101CC000A86AC2F2000ADAF8001042F2E06940F2B3
:101CD0000C280029C2F20009C2F2000859D042F2D1
:101CE000846E40F21C234FF0000BC2F2000EC2F2D1
:101CF00000034FF0010C26E03868C4F814B0013836
:101D00003860E76ADEF80000874207EB870088BF8B
:101D1000CEF8007003EB800255686261A968A56087
:101D2000E160A968AE604E6053F82010013143F8BD
:101D30002010D8F80000C06A874288BFC9F800C0E8
:101D4000DAF8000008B3DAF80C70FC68D4E907523E
:101D5000A76AAA607A6804F11806206AB242456050
:101D600001D1206A78603868C4F828B0013838603A
:101D7000D4E90202676982607A68261DE568B2428A
:101D80006860B9D1E0687860B6E7002C18BFFFF74B
:101D90002DF942F2A464C2F20004266856B101276C
:101DA000FFF7AAFD002818BFC9F80070013EF7D15F
:101DB00000202060D9F8000080B1D8F800004EF66D
:101DC0000450CEF200004FF080510160BFF34F8FFE
:101DD0000124BFF36F8F64E7002462E7002460E70B
:101DE00010B591EA030F48BF83F0004300F1EC8186
:101DF000841A71EB030C05D2121943EB0C03001B80
:101E000061EB0C014FEA1154A4EB135CDFF81CE109
:101E10001EEA430F18BF9EEA445F73D021EA0451C3
:101E200023EA0E0343F48013DCF1200E32D322FAAE
:101E30000CFE10EB0E0023FA0CFE41EB0E01CCF170
:101E4000200E03FA0EFE10EB0E00CCF1200E51F125
:101E50000001B1F5801F32D201EB045112FA0EF2EB
:101E6000BDE8104058BF7047401C38BF5FEA4202CF
:101E700018BF7047002814BF20F0010041F1000195
:101E80004FEA410313F5001F38BF7047A1F1C0416D
:101E900000F08CB9012A43EB0302ACF1200CDCF119
:101EA0001F0E32BF4FF0000E23FA0CF310EB0300AD
:101EB00041EB0451B4EB115FD0D0A1EB045101F51B
:101EC0008011490801EB04515FEA30000ED350F154
:101ED000000038BF12FA0EFE08D1BDE81040C9E775
:101EE000401C38BF5FEA4202CAD1C3E7BDE81040D8
:101EF0004FEA410313F5001F38BF7047A1F1C041FD
:101F000000F054B99EEA445F08D011EA5E0FBDE8C4
:101F1000104004BF01F0004100207047BDE81040B0
:101F200070B500F0F5F800BF64FBBE3E0000E0FFB6
:101F30004FEA41034FEA5353A3F58063D3F11E03E5
:101F4000C8BFD3F1210C0CDD4FF0004242EAC122A0
:101F500042EA505232FA03FC8CEAE17CACEBE170CD
:101F60007047102BC4BF0020704703F5787CBCF18C
:101F7000FF3F04D06FF0004282EA2100704770B545
:101F800000F0C6F84992248000207047F2E710F074
:101F9000004248BF4042B0FA80F310FA03F10AD081
:101FA000C3F11D0303F5806302EB03524FEA415076
:101FB00002EBD12170474FF00000704770B5DFF899
:101FC00048C11CEA111E1EBF1CEA13159EEA0C0F25
:101FD00095EA0C0F00F06F8081EA03044EEAD47E8C
:101FE000AE4421EA4C1123EA4C1341F4801143F42E
:101FF0008013AEF17F7EA1FB024CA0FB0365361976
:1020000055EB0C05A1FB034C4CF10003A0FB021C9B
:1020100016EB0C06654153F10003094218BF46F068
:10202000010613F4007F0BD14FEA03314FEA05306C
:1020300041EA155140EA165034036FF003020AE0FA
:102040004FEAC3214FEAC52041EA555140EA5650B4
:10205000F4026FF0020202EB2E4201EB025585EA18
:10206000CE710AD05FEA440C18BF24F0004450F14E
:10207000000041F1000120EAD47040F2FE7C62458C
:1020800000D270BDA84214BF4FF080444FF04044CE
:10209000002E08BF0024BEF1806FA8BFA1F1C0418F
:1020A000BDE8704080F2828001F1C04101F0004142
:1020B0004FF0000070470CEA13159EEA0C0F18BF92
:1020C00095EA0C0F06D081EA030E4FF000000EF0E7
:1020D000004170BD00F01CF88900013E00F007B817
:1020E00000F009B84FEA430C5FEA5C5C08D081EA73
:1020F000030100F05BB84FEA410C5FEA5C5CF6D18B
:1021000002494FF0000070470000FF070000F87F11
:102110000EF1020E2EF0030E5EF8046B364205D46B
:10212000012A43EB030515F5001F12D8012841EBE6
:10213000010C1CF5001F0CD80ED14FEAD17C0CEB22
:102140004C0C0CF1020C15F5001F08BF4CEBD37CB6
:1021500004E04FF0080C01E04FEAD37C0CEB4C0597
:1021600026FA05F606F00706B6F1040C06D20EEBC9
:10217000860CBDE870404CF0010C6047DFE80CF0C5
:10218000090B02024FF00041A1F500214FF00000C1
:1021900070BD19461046012851EB010418BFD4F553
:1021A000001484BF002001F0004170BD0808A0F5B4
:1021B00000114FEA3101704710B591EA030F48BF93
:1021C00083F000433FF514AE841A71EB030C07D281
:1021D0008CF0004C121943EB0C03001B61EB0C015B
:1021E0004FEA1154A4EB135CDFF89CE11EEA430FA5
:1021F00018BF9EEA445F00F0B08021EA045123EA50
:102200006E035242C3EB6E0338BF5B1EDCF1200E3F
:1022100025D322FA0CFE10EB0E0043FA0CFE41EB24
:102220000E01CCF1200E03FA0EFE10EB0E00CCF1E5
:10223000200E51F1000129D401EB045112FA0EF2E3
:10224000BDE8104058BF7047401C1CBFB2F1004FA2
:10225000704700280CBF491C20F00100704712EBAA
:10226000020E43EB030218BF4FF0010E4EEA42028A
:10227000ACF1200CDCF11E0E54D943FA0CFE10EB2D
:102280000E00CCF11E0E51F1FF31D5D50EF1010E2D
:1022900012FA0EFE404141EB010101EB445C5FEAA2
:1022A0005C5C10D901EB045110EBDE7038BFBEF15D
:1022B000004FBDE8104018BF704700280CBF491CF4
:1022C00020F00100704730D24FEAD42C24F400648F
:1022D00011F500111BD0B1FA81F20B3AA41AA41E19
:1022E000D2F12003914030FA03F31943904001EBFF
:1022F000CC7101EB0451002CBDE81040A8BF704721
:1023000001F1C04101F000414FF000007047B0FA08
:1023100080F310FA03F100D110BDE41A173C480510
:10232000C90AE4E701EB045110BD49104FEA30003F
:1023300001EB0451BDE8104002E04FF0000170478E
:102340004A0008BF0042F8D0B2F5001F28BF70470E
:1023500001F000414FF0000070479EEA445F07D053
:1023600011EA5E0FBDE8104004BF00210020704755
:10237000BDE8104070B5FFF7CBFE00BF40DFF63E72
:10238000104683F0004170470000E0FF00000000AD
:102390000000005F00000007000700147F147F1496
:1023A000242A7F2A122313086462364955225000DA
:1023B00005030000001C2241000041221C001408FB
:1023C0003E081408083E08080050300000080808BD
:1023D0000808006060000020100804023E514945D2
:1023E0003E00427F400042615149462141454B3108
:1023F0001814127F1027454545393C4A4949300198
:10240000710905033649494936064949291E0036EE
:10241000360000005636000008142241001414143F
:10242000141400412214080201510906324979416D
:102430003E7E1111117E7F494949363E414141227C
:102440007F4141221C7F494949417F090909013ED9
:102450004149497A7F0808087F00417F41002040B8
:10246000413F017F081422417F404040407F020CE1
:10247000027F7F0408107F3E4141413E7F090909E8
:10248000063E4151215E7F09192946464949493195
:1024900001017F01013F4040403F1F2040201F3F7E
:1024A0004038403F631408146307087008076151FF
:1024B000494543007F41410002040810200041418A
:1024C0007F00040201020440404040400001020439
:1024D0000020545454787F484444383844444420BD
:1024E000384444487F3854545418087E0901020C7B
:1024F0005252523E7F0804047800447D4000204040
:10250000443D007F1028440000417F40007C0418B7
:1025100004787C0804047838444444387C14141447
:1025200008081414187C7C080404084854545420E7
:10253000043F4440203C4040207C1C2040201C3C68
:102540004030403C44281028440C5050503C4464D7
:10255000544C44000836410000007F000000413622
:1025600008001008081008784641467890250008B1
:10257000000000200800000028010008982500083D
:1025800008000020E02C00004401000800000000CA
:08259000AAAAAAAA000000009B
:04000005080000ED02
:00000001FF
